:020000041000EA
:1000000000B5324B212058609868022188439860DF
:10001000D860186158612E4B002199600221596106
:100020000121F02299502B49196001219960352056
:1000300000F044F80222904214D00621196600F024
:1000400034F8196E01211966002018661A6600F04E
:100050002CF8196E196E196E052000F02FF8012189
:100060000842F9D1002199601B49196000215960AB
:100070001A491B48016001219960EB211966A021F2
:10008000196600F012F800219960164914480160C1
:100090000121996001BC002800D000471248134993
:1000A000086003C880F30888084703B5996A0420EC
:1000B0000142FBD001200142F8D103BD02B5186610
:1000C0001866FFF7F2FF186E186E02BD00000240BE
:1000D000000000180000070000035F00212200005C
:1000E000F4000018222000A00001001008ED00E03C
:1000F00000000000000000000000000074B24E7A12
:1001000000200420F7010010C3010010C5010010F9
:10011000C1010010C1010010C1010010C101001097
:10012000C1010010C1010010C1010010C701001081
:10013000C1010010C1010010C9010010CB01001065
:10014000CD010010CD010010CD010010CD01001037
:10015000CD010010CD010010CD010010CD01001027
:10016000CD010010CD010010CD010010CD01001017
:10017000CD010010CD010010CD010010CD01001007
:10018000CD010010CD010010CD010010CD010010F7
:10019000CD010010CD010010CD010010CD010010E7
:1001A000CD010010CD010010CD010010CD010010D7
:1001B000CD010010CD010010CD010010CD010010C7
:1001C00000BE00BE00BE00BE00BE00BE00F04BF888
:1001D000103800BEF2EB887148730010687300108D
:1001E0003402001090A31AE700202149086006C8D5
:1001F00081F3088810471F48006800282FD10DA4FC
:100200000ECC002902D000F012F8F9E71A491B4A77
:10021000002000E001C19142FCD1194988471949E9
:1002200088471949884700BEFDE701C901C29A42C3
:10023000FBD3704768730010C00000201009002035
:10024000B87B00100000042000000420B87B0010E0
:1002500000100420001004200000000070470B482C
:1002600003F06AF80047EFF30580C0B27047000062
:1002700008ED00E0000000D01009002074160020F6
:10028000291400100503001029150010575600000E
:1002900006005250ABB36053B870001006005250C5
:1002A000861C0302C8700010060052505422A29D02
:1002B000D470001005005250DE65F468B87B001061
:1002C000F8B5C046044B10B5002B03D003490448D1
:1002D00000E000BF10BDC046000000000C1600206A
:1002E000006E001010B504001F2100F07DF8002200
:1002F0002000002100F090F80021200000F09EF87E
:1003000010BDC046F0B5DE4657464E464546E0B500
:1003100085B004F0BBF92D4804F07CF806F066FCCB
:100320001A20FFF7DFFF1C20FFF7DCFF284804F04E
:1003300071F8284B284C9B46284B994604239A4633
:10034000E0222368D2011340254A136004224B4661
:100350001A60FC3223681342FCD08023656822684F
:100360009B015340E022D20113401D4A13605246C4
:100370004B461A608022520023681342FCD0636807
:100380002D042D0C1B041B0C2800984603F0C2FE04
:10039000144903F0B8FE03F0DFFE060040460F00EC
:1003A00003F0B8FE0F4903F0AEFE03F0D5FE43465E
:1003B00002900391009332003B002900584604F05C
:1003C00059F90A2000F068FCBAE7C046006E001038
:1003D000146E0010286E001000C0044000E00440BD
:1003E00000D004403333533A094A10B594464024B0
:1003F000830063441A68C000624080341440802245
:10040000520113431C60034B9C466044416010BD85
:1004100004C0014000400140074B80009C466044FE
:100420000368C90092000A435A400C231A408023F3
:100430005B0103431A60704704C00140084B800011
:100440009C466044002905D0802340229B01034341
:100450001A607047C02340229B0103431A60F8E7EB
:1004600004C0014070B5EFF3108C72B60D4D2B68CF
:10047000002BFCD0BFF35F8F0724CB08C618C05CED
:1004800001230C40A3401C000440034207D1184341
:100490003070BFF35F8F2C608CF3108870BD10003C
:1004A00001F044F82C0100D0F8B54746CE46884606
:1004B00080B5EFF3108C72B6214D2C68002CFCD067
:1004C000BFF35F8F9A422CD8D4080727055D061921
:1004D00001241740BC402C421FD007210127894628
:1004E00009E0D408055D06194C4639001440A140C6
:1004F0000C00294211D001329342F2D20120404235
:10050000BFF35F8F00220E4B1A608CF31088002817
:100510000FDBC0BCB946B046F8BD254310003570AE
:10052000EEE7BFF35F8F00232B608CF31088012070
:1005300040424346002BECD0089800F0F7FFC0463D
:100540002C0100D0024B18688007C00F7047C046CE
:1005500000C006400021044B044ABFF35F8F02C372
:100560009342FAD17047C046000100D0800100D00C
:10057000044A1078431CDBB2172B00D910231370E8
:100580007047C046E803002010B5064B064C82B009
:100590000100009318221F232000FFF785FF02B0FF
:1005A00010BDC0463C6E00106411002083680B48EB
:1005B00010B58446614462441201090159189B1820
:1005C0005C684A680120944201D802D00020C0B281
:1005D00010BD1A680B689A42F9D8F7E7FFFFFF0FC2
:1005E0000A4B1968EFF3108072B60A68002AFCD033
:1005F000BFF35F8F1B68BFF35F8F00221A6080F329
:10060000108840BF002000217047C04640160020DF
:10061000F8B5574645464E46DE46E0B599460CAB22
:100620001C780DAB1B78070090469A460568002C95
:1006300044D1AC7B002C3BD0660029683619033EC0
:1006400089194B78AB73002B00D1EB7300238B70AF
:100650004B700B702C4BE218BB6812019B18424682
:100660001A604A465A600A9A9A600B9ADA60002326
:100670008B704B700B706B7B9B46002B2ED06B6886
:1006800022005946A86898475B465B005B44033BE1
:10069000002819D0584629688E19B070CA18CB5C4A
:1006A000002B00D073705B4614706B735C4516D0E2
:1006B000F0BCBB46B246A946A046F8BD6600296814
:1006C0003619033E8919C5E72A68D3189C70911919
:1006D000925D002A00D05A705B460B706C734246E4
:1006E0004B46387D00F012FC051E02D05346002B0D
:1006F00004D00E9B002BDBD01D70D9E72100386899
:1007000000F054FEF5E7C046FFFFFF0FF0B5DE46F0
:100710004E46574645460023E0B58DB00A936B4BD5
:100720008200D3580B90994600239B464B46079373
:1007300000F08CFB079C06000F006268EFF3108549
:1007400072B61368002BFCD022000794BFF35F8FB2
:100750002468637B9946002B66D092685C4B904678
:100760004B441B01984443461A685B68100019000B
:10077000801BB94100295EDD0B9800F0C7FB002308
:100780000026984600279A46079C6368BFF35F8F50
:100790005A461A6085F310885346002B08D100286A
:1007A000C6D10DB0F0BCBB46B246A946A046F0BDCE
:1007B0000A9B414618024B461843D04708900991BE
:1007C0006268EFF3108572B61368002BFCD00794B3
:1007D000BFF35F8F0899099A002A47DB114303D0C2
:1007E000079B1B69002B5CD1079B1B68D97B0029E9
:1007F00006D01A684800411852184946033A517009
:100800004A46DA734B46079A013BD168CA5C01320B
:10081000CA545B46079A13615368BFF35F8F5A4609
:100820001A6085F3108883E7002300269846002786
:100830009A460020A8E7002901D100289CD1002178
:10084000200000F035FD43461E685F689B68079AEC
:100850009A464346DB689846D3684B44013B1B7875
:100860000A931B020343136100208DE72369002BC9
:10087000BAD033003C005B1A94411A002300A7420F
:1008800019D89F421BD05946049101210391494632
:10089000029141460191514607980091FFF7B8FE39
:1008A000B7E700F0D3FA089A099B06000F009219E7
:1008B0007B419942E5D901225242D317E3E79642A0
:1008C000E1D901225242D317DDE7C04624160020A9
:1008D000FFFFFF0FF8B557464E464546DE46E0B5EA
:1008E0003E4D81468A466A68EFF3108872B61368F7
:1008F000002BFCD0BFF35F8F2E68B47B002C38D068
:10090000670033683F19033FDB195A78B273002A36
:1009100000D1F273324AA118AA6809015218494657
:100920001160514651602F4991600021D16099704A
:1009300059701970737B9B46002B32D0736822006C
:100940005946B06898475B465B005B44033B002810
:100950001DD058463168CF19B870CA18CB5C002B2F
:1009600000D07B705B46147073735C451AD0002610
:1009700023E06B68BFF35F8F1C6088F31088012051
:100980004042F0BCBB46B246A946A046F8BD32681C
:10099000D3189C70D119D25D002A00D05A705B46E2
:1009A0000B7074734A465346287D00F0AFFA061E5A
:1009B000DDD02100286800F0F9FCEB681B19013B31
:1009C00019786B68BFF35F8F00221A6088F3108874
:1009D0000020002ED5D108022043D2E7EC030020EE
:1009E000FFFFFF0FE105001010B5124C6368002BEC
:1009F00004D00A21104800F017FB10BD23000F4A55
:100A00001021206800F072FB032000F013FA03208D
:100A100000F0ECFA03200A4900F032FAFFF7A8FDD3
:100A2000084B9C46032360442375074B800060609D
:100A3000DC60DEE7EC03002040160020AD0500106E
:100A40000D070010400000342416002000487047B5
:100A5000EC030020F0B54E465746DE464546E0B56D
:100A600085B0019310AB1B780600039300239A46D0
:100A7000994600927268EFF3108B72B61368002BE0
:100A8000FCD0BFF35F8F3568AC7B002C00D17EE0DB
:100A900067002B683F19033FDB195A78AA73002AB5
:100AA00000D1EA73504AA118B2680901521800989F
:100AB0000199106051600E9991600F99D1604A467A
:100AC0009A705A701A706B7B9846002B00D171E0B7
:100AD0006B6822004146A868984743465B00434440
:100AE000033B00285CD040462968CF19B870CA186B
:100AF000CB5C002B00D07B70434614706B73444575
:100B000059D0F3681B19013B18787368BFF35F8FE6
:100B10004A461A608BF310885346002B08D1000216
:100B2000204305B0F0BCBB46B246A946A046F0BD86
:100B3000039B002B55D00E9B00200F999847030074
:100B40000B434ED004000D1E0DDA009801990200EF
:100B50000B00121BAB41994213D839D0009201937C
:100B6000039B9A4686E700F071F902000B00A41877
:100B70005D4100940195A94203D8F1D100998A42C0
:100B8000EED901235B42DC1700930194E8E7736818
:100B9000BFF35F8F1C608BF3108801204042C0E7D9
:100BA0002A68D3189C70D119D25D002A00D05A70DF
:100BB00043460B706C73307D009A019B00F0A6F9E0
:100BC000824600289DD02100306800F0EFFB98E7B6
:100BD00000999142C2D901235B42DC170093019432
:100BE000BEE700209DE7C046FFFFFF0FF0B5040001
:100BF0000D0006267642F717C64636196F4100B536
:100C00008F4213D810D000F021F932003B00121AA5
:100C10008B41002B14DC002B37D02900200000F082
:100C20001FF980BCB846F0BD8642ECD900260027EB
:100C300000F00CF932003B00121A8B41002BEADD68
:100C400030003900FFF746FE0028E6DB0023984617
:100C5000BC460F4A0F4F7B6A9C4504D8B96A8E4246
:100C6000DBD99C45D9D11168EFF3108072B60B68BF
:100C7000002BFCD0BFF35F8F1368BFF35F8F41463B
:100C8000196080F3108820BFE5E7002AC5D0D7E7B8
:100C9000401600200040054070B5060000F0D6F870
:100CA000FA2204000D00002330000021920003F01E
:100CB000F3F9001969418D4205D802D0FFF796FF7C
:100CC00070BD8442FAD901204042C117F6E7C04600
:100CD000F8B5CE46474680B506000C00FFF7FAFD92
:100CE000031E11DC234A0020536AA34203D3926AF5
:100CF0000130B24203D3C0BCB946B046F8BD1B1B9D
:100D00005A1E9341D8B2F6E720BF1B4D6968EFF336
:100D1000108872B60A68002AFCD0BFF35F8FFF22EA
:100D20002868D9B2477B1A408F420AD00768B94673
:100D30005700BC464F4694446744033FBF78002F9A
:100D40000FD0EF681B0ABA18013A1278DBB29A4248
:100D50000CD06B68BFF35F8F00221A6088F3108895
:100D6000C0E72A699342F4D12F61F2E700F01EFB3D
:100D7000EFE7C04600400540EC030020F0B5D64642
:100D80004F464646C0B5EFF305823F231340180097
:100D90001038EFF3108C72B620490A68002AFCD094
:100DA000BFF35F8F0122170087401D4C1600A2463B
:100DB00067631C4C2578A0462C00C4402640224284
:100DC00009D1BFF35F8F0E608CF31088E0BCBA4688
:100DD000B146A846F0BD5246566A134A8400A2584E
:100DE00096420ED34246114BBD43E3581570BFF3F4
:100DF0005F8F00220A608CF31088002BE6D09847A2
:100E0000E4E70B4A9B00904643441A681A60BFF31C
:100E10005F8F00230B608CF31088D7E7280100D088
:100E200000400540731600204C160020541000208E
:100E3000D03F054010B5034B01001800024AFFF7F0
:100E400011FB10BD70160020586E0010034B596A3C
:100E50000A00986A596A8A42FAD1704700400540F0
:100E6000064A536A9942FCD807D1044B02E05A6AF9
:100E7000914202D19A6A8242F9D3704700400540FC
:100E800070B504000D00EFF3108672B61A4A1368AD
:100E9000002BFCD0BFF35F8F002D1BD0200000F093
:100EA000D5FC164981420AD0200000F0D7FC012170
:100EB000200000F0B1FC0123A340114A1360114B44
:100EC000A400E550BFF35F8F00220B4B1A6086F33E
:100ED000108870BD0121A1400A4BA200D5500A4BD9
:100EE00020001A788A4305491A7000F0E1FC0021BD
:100EF000200000F091FCE5E7280100D07D0D0010F6
:100F0000386005405410002073160020F0B54F469D
:100F1000D6464646C0B507002F4C616A0D00A66A4A
:100F2000616AA942FAD18B4208D805D00120E0BC01
:100F3000BA46B146A846F0BDB242F7D9EFF3108ADF
:100F400072B6264801680029FCD0BFF35F8F0125E7
:100F5000BD402349204C8846097889462943C9B2B7
:100F60008C46414660460870391D890065630A5108
:100F70001C49B8004350216A0020294219D0616AF7
:100F80000800A66A616A8142FAD18B4219D801D160
:100F9000B24216D8CC451DD00F4B1F221D625D6397
:100FA00001233A409340104A0120136043464A46C9
:100FB0001A70BFF35F8F0022084B1A608AF3108803
:100FC000B5E70020BFF35F8F0022044B1A608AF35D
:100FD0001088ACE70120ECE700400540280100D074
:100FE000731600204C16002080E200E0EFF3108C16
:100FF00072B60A490B68002BFCD0BFF35F8F012348
:101000008340074A0748136202789A430270BFF38D
:101010005F8F00230B608CF310887047280100D08D
:101020000040054073160020024B9C466144890035
:10103000016070474000003410B50400FFF798FAD3
:1010400001002000FFF7F0FFFF23A380BFF35F8FB5
:1010500010BDC04610B50400FFF78AFA0100200059
:10106000FFF7E2FF01235B42A380BFF35F8F10BD58
:1010700010B504000120FFF787FA044B9C4660443A
:1010800080002060BFF35F8F10BDC0464000003479
:1010900070B5050014001600002915D00C00002AB8
:1010A00012D06B68806898477200630092191B1910
:1010B0002968033A033B002808D08A189470C8189E
:1010C000CB5C002B0FD10670200070BDCB189E703A
:1010D00088188A5C002A02D104703400F4E75A7040
:1010E00004703400F0E753700670EDE710B58360CC
:1010F0000023CCB243730133426004738373C4731F
:101100000068421C012C05D90133DBB21370033295
:101110009C42F9D1FF230B405A00D318C01800237A
:101120000338437010BDC046F8B505000C1E07D04B
:10113000630001681B19033BCB185A78002A01D1C0
:101140002000F8BD500080180338091800204F789F
:101150004870210058702800FFF79AFF39000600F8
:101160002800FFF7E1FF0400002EE9D0002820D07E
:10117000220031006B68A86898476200730012195A
:101180009B192968033A033B002809D08A189670F6
:10119000C818CB5C002B00D0537004703400CFE72C
:1011A000CB189C7088188A5C002A00D05A70067090
:1011B000C6E73400C4E7C046F0B557464546DE46AC
:1011C0004E46E0B50D006B0001685B19DF1E0400A0
:1011D000C85D83B00192CA1900284CD043001B1887
:1011E000033BCB185E78B446002E16D1019E002E2C
:1011F0003ED0E67B002E04D073009B19CB18033B36
:101200005D70E57300282FD10023537003B0F0BC4C
:10121000BB46B246A946A046F0BD72006244033AFE
:101220008A185178884600215170894659703200D9
:1012300001002000FFF72CFF43468246002B07D019
:101240005B0021684344033BCB185A78002A16D12F
:10125000424651462000FFF71BFF2168019BCA1937
:10126000002BC6D10028CFD043001B18033BCB185E
:1012700000219970C8E7019B002BBAD1C4E7500048
:1012800080180338091848788346484648705870D3
:1012900041462000FFF7FCFE594680462000FFF73C
:1012A00043FF414602002000FFF7F2FE8046CFE7F1
:1012B000F0B557464546DE464E46E0B583B001914F
:1012C000457B04006B0000685B19DF1EC15DC2191D
:1012D00000294ED04B005B18033BC3185E78B44620
:1012E000002E18D1019E002E40D0E67B002E04D0A7
:1012F00073009B19C318033B5D70E573002931D15E
:10130000002328005370617303B0F0BCBB46B246A3
:10131000A946A046F0BD72006244033A8218507894
:101320008046002050708146587032002000FFF740
:10133000AFFE43468246002B07D05B002168434442
:10134000033BCB185A78002A17D142465146200059
:10135000FFF79EFE019B01002068C219002BC4D13B
:101360000029CDD04B005B18033BC31800209870B8
:10137000C6E7019B002BB8D1C2E7500080180338A4
:1013800009184878834648464870587041462000FE
:10139000FFF77EFE594680462000FFF7C5FE414616
:1013A00002002000FFF774FE8046CEE770B504000F
:1013B00000292CD0437B8B422ED005684800401872
:1013C000033828188278002A21D053009B18033B49
:1013D000EA5CEE188A4202D11BE0002A08D05300D2
:1013E0009B18033BEB185A788A42F6D142785A7020
:1013F00000230122837043702000FFF7DDFE617B34
:1014000002002000FFF744FE6073012000E000208E
:1014100070BD43783370EBE701221900FFF7CCFE73
:1014200060730120F4E7C046F8B5304A304B3149CB
:101430001A60314A314B1A6014008B689C43FBD10F
:101440002F4D304EB54208D2013E761BB60808CD6E
:10145000984723000134B342F9D100F085F82A4AB5
:10146000264B1A60234A9368DB43DB01DD09002B1E
:10147000F9D14022254B264C264F9A675A671A67A6
:10148000DA66BC4215D2013F3F1B0026FF0806E08A
:10149000FFF7E0FD0834731CBE420AD01E006379DA
:1014A0002000002BF4D1FFF7C7FD0834731CBE42A7
:1014B000F4D1194C194EC022B168200002F0C4FECC
:1014C000B460FFF747F800F02BFBFFF78DFA144CE0
:1014D000144EB44208D2013E361BB60808CC9847D9
:1014E0002B0001359E42F9D1F8BDC046BFCDFBFEB1
:1014F00000E0004000C00040FE7F3C0000F00040E3
:10150000F408002004090020FFFFFF0100F0014063
:10151000EC080020F40800200000002000ED00E0AE
:10152000040900201009002000BEFDE70FB400B53B
:10153000084883B002F06EFF049B002B07D005A97A
:101540001800019101F0D8FE034802F063FF00BECD
:10155000FDE7C0467C6E00108C6E001010B501488F
:10156000FFF7E4FF906E001010B50C2082B000F081
:1015700043FBFEF7E7FF00280ED0854B854A1A6033
:101580005A609A60DA601A615A619A61DA611A6285
:10159000814A5A6202B010BD804CA06700F084FB03
:1015A00001227F4B1A60636C012BFCD103227D4B1F
:1015B0001A607A4A936B012BFCD1022401217A4AEA
:1015C0007A480533009400F0C7FA0523784A0121D0
:1015D0007848009400F0C0FA774B5A68FF2A02D886
:1015E000802252005A6080226E4B694C12011A60B0
:1015F0002169002905D0606901F0F8FE0130013849
:10160000FDD1E0226C4B6D4819680A40026002224D
:101610001968514001320A40042102609A6811425F
:10162000FCD08021664A09011160802252005A6074
:10163000644B2361644B5968FF2900D85A60032228
:101640000121574B1A60604A93681942FCD0E0238D
:10165000106803405D480360126803234A4002217A
:101660001340594A036093681942FCD08021584BBB
:10167000090119608021574B490051606361564B45
:101680005A68FF2A00D859608022544B12011A6010
:10169000E169002905D0606901F0A8FE0130013838
:1016A000FDD1E0234C4A11680B404D490B6080216D
:1016B0004C4B090119608021364B49005160E361B0
:1016C000494B5A68FF2A00D859608022474B1201C3
:1016D0001A60216A002905D0606901F087FE013097
:1016E0000138FDD1E023404A11680B4040490B60AE
:1016F0008021404B0901196080235B0053608022E8
:10170000244BD20223623C4B5968914200D25A606A
:1017100080223A4B12011A60616A002905D0606983
:1017200001F064FE01300138FDD1E023324A116836
:101730000B4033490B608021324B09011960802333
:10174000DB025360144B63622F4B5A68FF2A02D8A6
:10175000802252005A6080222C4B12011A60A1692B
:10176000002905D0606901F041FE01300138FDD14A
:10177000E023254A11680B4025490B608021254B49
:101780000901196080235B005360124BA36101E7DC
:1017900068110020006CDC021BB7000000800040D4
:1017A0003CB0004030B00040002F6859008002403B
:1017B00000389C1C00C00240308000403090004047
:1017C00030A00040001BB7003C8000403C9000402F
:1017D0003CA00040405973075480004054B0004082
:1017E0005490004054A000406080004060B0004031
:1017F0006090004060A000406C8000406CB00040F1
:101800006C9000406CA000404880004048B0004010
:101810004890004048A0004001238340002904D0A4
:10182000034A1360034A13607047034A1360FBE7DF
:1018300080E200E000E100E080E100E0012383407D
:10184000014A13607047C04600E200E0024B1030CE
:101850009B688000C058704700ED00E070B50D0037
:10186000EFF3108672B60F4A1368002BFCD0BFF35B
:101870005F8F0D4B10309B6884001B590B4A9342BD
:1018800003D09D4201D0FFF769FE074B9B681D51B5
:10189000BFF35F8FBFF35F8F0022024B1A6086F3A6
:1018A000108870BD240100D000ED00E0CD010010D3
:1018B000F0B5DE4657464E464546E0B50C0083B0CF
:1018C000EFF3108A72B65C4A1368002BFCD0BFF3AA
:1018D0005F8F1022914681444A46584B96009B6880
:1018E0009D59574B98469D4205D0A54216D0554F5D
:1018F000EB1B2F2B14D9514B9B689D51BFF35F8F6E
:10190000BFF35F8F00224C4B1A608AF3108803B03C
:10191000F0BCBB46B246A946A046F0BD1D00EAE7B2
:10192000012383409B465A46474B1B681A4000924E
:101930005A46464B1A60BFF35F8FFEF794FC019046
:10194000002803D0814501D0FFF708FE01232A00BB
:1019500006209A431300DB1B5B4143495943090DA1
:101960001056936884469C420AD15DE043001B18E0
:101970009B00FB189868A04211D006201A00185648
:101980000028F3DA009B002B05D05A46304B1A6032
:101990002D4B1A60AFE75A462C4B1A60ABE7062076
:1019A00018568446002823DB6246614652005118CF
:1019B0008900781884689C60C479DC710624045717
:1019C0009C71002C20DB8088400500150818F91A4E
:1019D0000918E0200905490D0002014399801D4BBB
:1019E000624419789200BA18917162461A70C9E778
:1019F000019800280BD1FF30907117489080154A4C
:101A0000107811709871BDE7BD210902E6E7134A0D
:101A10001349D21A083A5002400D014399801149E6
:101A200052080A43DA80ADE713000028BCDA019AB5
:101A3000002AECD14546E2E7240100D000ED00E0A9
:101A4000CD0100101404002000E100E080E100E07E
:101A500080E200E07116002000BDFFFF4E04002070
:101A600000F0FFFF00F8FFFFAAAA0000F8B501256B
:101A700004000543FEF7F7FBEFF3108C72B6214A22
:101A80001368002BFCD0BFF35F8F1F4E2200B76896
:101A90001E49521A5241214B53431B0D8200B85824
:101AA0005BB2A8421CD006228A569A421CD012224F
:101AB0008A569A4222D01E228A569A4220D02A2240
:101AC0008A5603209A4210D0114A11781370A171DE
:101AD000BFF35F8F00220B4B1A608CF31088F8BDA8
:101AE000B1680C488850EFE70020420012189200BD
:101AF0008918FF228A71084A8A80E5E70120F4E705
:101B00000220F2E7240100D000ED00E014040020E0
:101B100071160020CD01001000BDFFFFAAAA000031
:101B2000F0B500220324FF27802620003D00094B4A
:101B300011009C461040C0008540A14361440B68E1
:101B40000132AB43350085402B430B60202AECD19A
:101B5000F0BDC04600E400E0F8B504000C2017001A
:101B60001D000E0001F042FC43011B1A9901C91A25
:101B7000C90009188901380001F038FC069B2904C6
:101B80001B0319432368002B20DB174B174DE31869
:101B90005A4253418022520194461B03144A634423
:101BA0001360144A13601F00AA689743FBD1C02337
:101BB000221D9B01134321222660A0601A60226827
:101BC000002AFCDA0822E1601A60F8BD3F2322688F
:101BD0001340B342D9D1A3681B051B0D8342D4D156
:101BE000E3680029D1D1F0E70040FDBF00C000400C
:101BF00000E0004000F000408023024A9B000343C5
:101C0000D36270470080054010B5140080221C4B41
:101C1000D2051A60002828D001231A4A18431A4B0B
:101C2000DA611A4A42401A62596298628022144B61
:101C3000D2051A601649174A1160E022D2041A60D0
:101C4000002C15D063011B1B9A008023121912016E
:101C50005B049A4210D3104B104A1A600A4B5A6028
:101C600080220F4BD2051A6010BD074BD861DDE70B
:101C7000094B0C4A1A60F1E7074B1A60EEE7C046C1
:101C800000B00540D3C007B0008005402D3FF84F9D
:101C9000FCFF01000820014004160020FFFFFF00A8
:101CA00000A00540A0860100AA23064A1B0113607C
:101CB0002F230549D360054B19605368002BFCDACC
:101CC0007047C0460040024000B0FA000060024089
:101CD0007047C046F8B557464546DE464E46E0B525
:101CE00098460A9B06009A460D9B0F0093461500E6
:101CF0009B0710D10B9B0C9A93420CD213005C46AD
:101D00000B9A9D1A5D44220043460134390020207D
:101D1000B047A542F7D10B9C6319002C09D01D00D8
:101D200053462A1B013C185D39004346B047002C3E
:101D3000F6D10D9B9B070ED55B46EC1A0C9BA3427C
:101D400009D999462A004346390020200134B0477A
:101D50000135A145F6D82800F0BCBB46B246A946DD
:101D6000A046F8BDF0B54F464646D646C0B584B04D
:101D700098460EAB1B7894469946129B0D9C109F7B
:101D8000119E9A0724D401221A409246002E5DD15A
:101D9000BC420CD21F2C00D9B4E00C9A551E302244
:101DA00001E0202C03D001342A55A742F9D852462D
:101DB000002A0DD0A6420BD90C9A551E3022202C99
:101DC00002D151E0202C4FD001342A55B442F9D130
:101DD000DA062DD55A0550D4002C4AD10F9A102A74
:101DE00000D183E00F9A022A19D030220C9C227075
:101DF0004A460124002A20D02D220C9D2A55013468
:101E000003930C9B62460093029643460194FFF7AE
:101E100061FF04B0E0BCBA46B146A846F0BD0C9CD8
:101E200060322270012430250C9A12191570013489
:101E3000202CE5D04A46002ADED15A072CD41A07B6
:101E4000DED520220C9D2A550134D9E7002A1CD06A
:101E50004A46002A2BD10C321A4228D1BC42A9D2C0
:101E60001F2C9AD9202E15D92024DA06C8D55A0558
:101E700003D4A7421DD0B4421BD00F9A102A22D0FF
:101E8000022A0ED0202CBBD0CDE7BC42A0D21F2C02
:101E900000D882E720249BE72B220C9D2A55013491
:101EA000AEE7202CACD00C9A1219013436E0013E7A
:101EB000D4E7621E012C91D00F9D102D24D0022D4D
:101EC00029D01400AFE79A0607D4202C98D00C9A9A
:101ED0001519013478222A70D4E7202C00D18FE71D
:101EE00058250C9A121915700134CBE79A0604D4C0
:101EF00078220C9C2270012495E758220C9C2270B9
:101F0000012490E7202452E7023C9D06E8D40C9D72
:101F10002D191400DEE70C9DAA4652446225157067
:101F2000B0E7C04610B5002800D110BD02F01AFA83
:101F3000FBE7C0460B0010B5002802D049681B68BB
:101F4000984710BDF0B5DE4657464E464546E0B5CB
:101F50009BB09B46249B89469846259B0A900B92F2
:101F60004046424619009A4601F00FFD002800D075
:101F7000DCE0012240465146794B524201F000FD1F
:101F8000002800D0D2E0012240465146754B524213
:101F900001F0E0FC002800D0C8E000220023404609
:101FA000514601F0D7FC002800D0BCE14246534620
:101FB000099208938023289ADB001A400E92289AEF
:101FC0001A4201D1062326938023289A1B010999DE
:101FD0001A40089B0E000D920B4300D0C6E000256E
:101FE0000026002A00D19BE100230C93269A0C9B2B
:101FF0009A4200DC9EE1D31A013B26938023289A63
:10200000DB001A430023002728920C93279B00240F
:10201000BB4200D9DC1B0223289A1A400D92289A51
:10202000134203D07B427B415B421C400C9B002B44
:1020300007D0099808992A00330001F02AFC09907A
:102040000891002200234046514601F083FC0028FD
:1020500005D0802000068446089961440891289A9A
:10206000414B0A9D13400493269B099A0293089BB7
:1020700003940092019349465B4628000B9A00F0B6
:102080008BF90400002F62D0289B220098061F23A2
:10209000C0179843631C984649465B466530A8477D
:1020A0000C9A0025D317D4185C40D30F9A46013FF1
:1020B00001E0202D13D00AAA94461F232000634478
:1020C0000A2101355E1901F091F93031317020009B
:1020D0000A2101F08BF926000400092EE9D8052316
:1020E0000693002304930A330393534605970A9FEC
:1020F000029312AB009342465B4649463800019575
:10210000FFF730FE0D9B0400002B20D00B9BC51A5F
:10211000279BAB421BD91E0022005B46494620206C
:102120000135B8470134AE42F6D810E0289B42464C
:102130000493279B49460393269B0A980293534690
:10214000009201935B460B9A00F026F904002000F0
:102150001BB0F0BCBB46B246A946A046F0BDC04687
:10216000FFFFEF7FFFFFEFFFFFF7FFFF734B089FBE
:102170009C467800400D604401F01AFC704A714B97
:1021800001F0A5FB704A714B01F07AFB3B03704AEA
:102190001B0B1A4304000D00300011006D4B002290
:1021A00001F065FB6C4A6D4B01F091FB02000B00E6
:1021B0002000290001F064FB01F012FC0C9001F0FA
:1021C000F7FB674A674B04000D0001F080FB00221B
:1021D000654B01F055FB01F003FC644A0600644BBB
:1021E0002000290001F073FB040030000D000F9661
:1021F00001F0DEFB5F4A604B01F069FB02000B005F
:102200002000290001F033FB02000B0006000F0044
:1022100001F05DFB320004000D003B00300039008E
:1022200001F02EFB002210901191544B2000290048
:1022300001F02FFB0022524B01F022FB02000B00A9
:102240002000290001F025FB00224E4B01F018FB75
:1022500002000B002000290001F01BFB0D00802173
:10226000040032003B000020C90501F000FB020021
:102270000B002000290001F003FB02000B00109866
:10228000119901F006FB0022314B01F0F9FA3E4BA7
:102290000F9C9C4664440022230501F018FB0500B6
:1022A0000E0002000B000998089901F053FB00286A
:1022B0000AD00C9B2800013B31000C930022304BCC
:1022C00001F0E7FA05000E00C6270C992B006331D8
:1022D0008F42BF410D997F420437002900D195E616
:1022E000334300D182E6089C284A2100284B0998F4
:1022F00001F03EFB002808D000222100254B099860
:1023000001F028FB002800D070E6269B002B00D1AE
:102310007CE60E9B5A1E9341269AD31A269375E6A5
:1023200004270C9372E64346099380231B0653440B
:1023300008933FE60023269360E6C04601FCFFFFBA
:10234000FB799F501344D33FB3C8608B288AC63FA4
:102350000000F03F0000F83F61436F63A787D23F62
:1023600071A379094F930A400000E03F1655B5BBB1
:10237000B16B0240EF39FAFE422EE63F00002C40DE
:102380000000244000001840FF0300002D431CEB18
:10239000E2361A3F80842E41F0B54E46DE4657465F
:1023A0004546E0B597B09946209E219F229B8346E3
:1023B000984607910C923B0032003000390001F042
:1023C000E4FA002800D0ADE1012230003900CC4B06
:1023D000524201F0BFFA002800D003E10122300090
:1023E0003900C84B524201F0CBFA002800D0D9E0A6
:1023F000002230003900C44B01F0C2FA002800D09E
:10240000BBE0002230003900C04B01F0A3FA0028E5
:1024100000D0B2E0002200233000390001F09AFA27
:10242000002800D0D3E000230D93249B5B0501D44A
:102430000623984608AB9C461722002430234146C9
:10244000624404E0013413550139202C01D00929DC
:10245000F8D888463000390001F0C2FA4246AC4B49
:10246000D2009B181A685B6805000892099301F076
:102470009FFA02000B003000390001F0F8F9089AC9
:10248000099B01F024FA0A900B9101F0CDFA8246E3
:1024900001F08AFA02000B000A980B9901F0E7F9A3
:1024A00000229C4B0A900B9101F06AFA002800D19F
:1024B000E2E001239C46E244504601F075FA020036
:1024C0000B000898099901F04BFA002802D000236C
:1024D0009A4601354346002B00D18BE008AB172606
:1024E0009C4608956644554614E001235B424344EC
:1024F0000A2128009A4600F079FF0134303137195B
:10250000397028000A2100F071FF092D00D8D0E0B1
:10251000D0460500202CE8D10EAB98460323249A20
:102520001340012B00D0E8E0239A2023002A1DD07D
:102530000D9A002A00D0FDE024990C320A4215D0F1
:10254000239A013A2392239A9A4200D805E108AAD5
:102550009446172130226144202B07D02398013361
:10256000CA54834200D1E9E0202BF7D1249A019389
:102570000392239A434602921EE0249B58460493FA
:10258000239B00960197039343460C9A0293079965
:102590004B46FFF7D7FC17B0F0BCBB46B246A94686
:1025A000A046F0BD249B5B070ED403225A4B24990E
:1025B0000192039123990291009358464B460C9A3D
:1025C0000799FFF787FBE6E70422544BEFE73B0050
:1025D00032000020002101F04AF9012306000F001B
:1025E0000D9322E7249B0393239B029304230193DF
:1025F0004B4BE1E7280001F0DBF902000B00300053
:10260000390001F034F9434B002206000F0001F0BD
:10261000A1F90EAB984600280AD1002230003900FB
:102620003C4B01F0ADF9002802D1EB0700D5013594
:10263000202C00D172E708AA94461723280063448F
:102640000A2101341E1900F0A9FE30312800317032
:102650000A2100F0A3FE051EEAD10323249A1340A9
:10266000012B6DD0202C48D00D9B002B14D02D2297
:102670004146631C0A5579E700220A980B99254BBD
:1026800001F068F9002800D024E75346002B30D130
:1026900001239C46E2441DE7249B5B0724D4249A33
:1026A0002300120700D461E72022414601330A5576
:1026B0005CE75746089D202C00D12DE722003021F1
:1026C0004046002F09D00132B154202A00D123E71F
:1026D000831A013BE318002BF5D10EAB98462E234D
:1026E0004146541C8B54A3E72B224146631C0A55D8
:1026F0003CE7DB0700D4EDE6CAE7202336E7C04617
:10270000FFFFEFFFFFFFEF7F65CDCD4165CDCDC171
:10271000507000100000E03FA46E00109C6E00108E
:10272000AC6E0010249B0393239B0293032301931D
:102730000C4B41E7239A013A239217E7040091E7F3
:10274000239B002B8ED00D9B002B08D10C222499AB
:102750002300114200D1F6E6F2E61C0082E72300D6
:10276000EEE6C046A86E0010F0B55746DE46454678
:102770004E46E0B5A1B01F002A9B90460A93C64A78
:10278000C64B83468A461A60002900D163E1387837
:102790000025002800D165E1C14B46469946C14B52
:1027A0000C93534609934B46DA4608930AE06B1C98
:1027B00098462A0033000999D047454638780028C2
:1027C00000D1BDE001372528F1D110239B460C3BF9
:1027D0009946023B9846013B00229C463878791C7A
:1027E0000300203BDBB2102B03D8089C9B00E3586E
:1027F0009F460300303B092B77D9002398462A28AF
:1028000000D1B3E000230B932E2800D189E0030010
:10281000683BDBB2122B1CD8A34C9B00E3589F46AD
:1028200063460F001A43D9E743460F001A43D5E722
:102830004B460F001A43D1E75B460F001A43CDE722
:1028400008230F001A43C9E7802378785B001A43F6
:1028500001310F0067280AD82428A8D90300253B96
:10286000DBB2422BA3D80C999B00CB589F460300A8
:10287000693BDBB20F2B9AD801218C4C9940A446BE
:102880000C40A1466446214200D033E20A2B00D11D
:10289000EAE0072B8BD10A9B190008C98846002B58
:1028A00000D17CE121210A43934610A98C461F22C6
:1028B0000F21099862440A958C46150049468146C5
:1028C00002E020290CD0130064461C402000373061
:1028D000092C00D80738013168541A090F2BF0D899
:1028E0004B460A9D8946099362E1002394460700FE
:1028F000099C00E001319800C0184000C0190F7811
:10290000030038003038303B0928F3D998460023BB
:10291000380062460F00099401310B932E2800D035
:1029200075E780237878DB001A430300303B092BDE
:1029300000D80EE12A2800D121E10F00013166E71D
:10294000099BD346B0469A462C00A84501D8434679
:102950005D1E43462A0051460020D847200021B082
:10296000F0BCBB46B246A946A046F0BD0A9B01CBCF
:102970008046002804DB78780A930F00013141E794
:10298000022002434046404280460A9378780F0076
:10299000013137E780239B0078781A43013158E7EB
:1029A0007878682800D12EE2802301311A4350E75D
:1029B00078786C2800D120E280235B001A43013133
:1029C00047E7462800D192E107210A9B049242463C
:1029D00007338B43190003920B9A504602920CC99D
:1029E000009201930A912A0033000999FFF7D4FC61
:1029F0000500E3E66B1C98462A0033002520099960
:102A0000D0474546DAE60A9B04339B46920700D43A
:102A10004AE26B1C99460A9B2A00187809993300F0
:102A2000D04743464544012B00D8E9E23B00B0467D
:102A30004C4656469946099F2200434601343900C8
:102A40002020B047AC42F7D1B246099746464F46E0
:102A50005B460A93B2E6164B38789B460025002861
:102A600000D099E6002470E70A9B02CB0E930B7806
:102A70008B469C4618000B9B002B00D08AE0002858
:102A800023D002235B4201335B44994649465B46AF
:102A90009146099C0A000FE06927001000160020EB
:102AA000B46E0010446F0010F86E001041900000EA
:102AB000D11C0010934203D0597801330029F9D179
:102AC00059465B1A4A469946099480231100DB0057
:102AD00019400A911A4203D00B9B994500D9994697
:102AE0000223190011400D91134200D1B5E1634654
:102AF000002B00D198E10A9B002B00D166E10B9BD3
:102B00002A009C465B46AC445B1B64469B464B4696
:102B10000B94B1460A935646BA46099F09E04B46C4
:102B20003900551CB0475B46585D002800D174E160
:102B30002A009442F3D10A9B09975746B2464E4663
:102B400099460B9D0D9B002B00D06DE10E9B0A93C7
:102B500034E60B0007000021099C8800401801336F
:102B60004000C0191F78010038003038303909287A
:102B7000F3D938000B911F000994591C47E60A9BB2
:102B8000023701CBC143C91708400B900A9338782C
:102B9000791C3CE6002898D00B9B013B73E7102181
:102BA00010008843113108438346520500D47CE667
:102BB0005B460693082305930B9B2A00049310237E
:102BC0000393002302934B46019318AB00935046A6
:102BD00033000999FFF7C6F8434605000A93EDE56F
:102BE000202301009943472904D180231B011A4364
:102BF00002239843452801D120231A4307210A9B29
:102C00000492424607338B43190003920B9A5046B5
:102C100002920CC9009201930A912A00330009998B
:102C2000FFF790F90500C9E5622800D1FCE16F28A3
:102C300000D15EE1582800D1EAE010239A43063B18
:102C40000E938023DB001340692800D04DE10D92E4
:102C5000002B5AD001230D9A9A430D92692854D023
:102C6000642852D00D9A802311009B0019408B4696
:102C70001A4200D0DBE1802311005B001940894635
:102C80000A9904310F911A4200D0AFE213005B069B
:102C900000D5B1E113001B0600D414E30A9B1B8886
:102CA0009B465B46002B00D0E7E10D9A10331100E4
:102CB00099430D91520500D4DFE1002399460D9B05
:102CC0000693434605930B9B04930E9B03930023AB
:102CD00002934B46019318AB2A00009350463300F1
:102CE0000999FFF73FF80F9B05000A9366E520233B
:102CF0001A4369E610230E93782895D10C2311000E
:102D000099430D915205A5D4A8E70D9A802311008F
:102D10009B0019408B461A4200D0EDE08023110041
:102D20005B00194089460A9904310F911A4200D07C
:102D3000D5E113005B0600D53AE113001B0600D471
:102D4000BBE20A9B00229B5ED9175A184A4092B2F6
:102D50009346DA0F1492002B09D1802310220D998B
:102D6000DB000B4091430D91002B00D052E10D9AF6
:102D70006123920600D54123DBB20A3B10A90A93D6
:102D800043461F228C461693099B62445C46159568
:102D9000BB464D469846B14617000E9E0AE03033BA
:102DA000DBB201357B55B44200D22BE1202D00D19E
:102DB00028E104003100200000F018FBCBB2092903
:102DC000EDD90A9A94466344DBB2EAE75B465B1BA3
:102DD0009B463B0054469A463700099E2A003B001A
:102DE0003100A0475B460135585D0028F6D15346B7
:102DF0000996A2463E001F00A4E6C0239B00B878B7
:102E00001A43F91C25E5C023B8781A43F91C20E5BC
:102E100020231A43103B0E9370E70A9B09975746ED
:102E2000B2464E4699468DE6AB46C84500D88DE67B
:102E30004B4645445C46B0465646B946099FED1A96
:102E400022004346013439002020B047AC42F7D17C
:102E5000B246099746464F4678E64B460133C84589
:102E600000D836E243464A465B199B1A99463B0016
:102E70004C46B14656469A46099F2A004B460135B4
:102E800039002020B047A542F7D1012343440997D8
:102E90005746B2464E4699465B461B789C4660466E
:102EA000002800D027E651E64346012B00D80EE269
:102EB0006B1E98444446B0465646B946099F2A00C0
:102EC0004346013539002020B047A542F7D1B2462C
:102ED000099746464F46A04643465D1C0A9B42461C
:102EE000187809993300D047B2E5642800D1AEE6DE
:102EF00004E708230E93A4E607220A9B07339343B3
:102F0000013294469C4462460A920CCB9C46DB17E5
:102F1000129313931298139903005340109364462D
:102F20000B0063401193109B119C1B1A8C41109352
:102F300011946346DB0F149300239B4663461A43A8
:102F40003AD00D9A6123920600D54123DBB20A3BA9
:102F50000F93434600221693534610A98C46914680
:102F6000179333001F3262444E46BA461595904679
:102F7000109C119D99460E9F0CE03032D2B2434610
:102F800001369A55AB4500D17BE1202E00D17BE183
:102F900004000D003A0000232000290000F068FA28
:102FA000D2B2092AE9D90F9B9C466244D2B2E6E725
:102FB0000A9B1B781A00CBE60D9A10231100994347
:102FC0000D915205BDD5002399460D9B06934346AE
:102FD00005930B9B04930E9B0393149B02934B4608
:102FE000019318AB2A000093504633000999FEF76D
:102FF000B9FE0500FFF7E2FB0A9B1B789B4650E6F3
:103000004D4625E543460993169B5F4698464E4636
:10301000A946159D0D9B0693434605930B9B049370
:103020000E9B0393149B53E602230E9366E607223E
:103030000A9B07339343013294469C4462460A92AA
:103040001A685B6810009B4613005A46134300D071
:1030500095E00D9A1033110099430D91520500D45B
:103060008DE0002399460D9B0693434605930B9BE9
:1030700004930E9B03930023B0E70D9A61239206FD
:1030800000D5412310A91F228C46DBB20A3B0A93CC
:10309000099B62445C461495B3464D461597994684
:1030A00017000E9E08E03033DBB201357B55B44289
:1030B0000ED3202D0CD004003100200000F096F932
:1030C000CBB20929EFD90A9A94466344DBB2ECE704
:1030D0004B465E46A946159F149D0993EFE50A9B52
:1030E0001B68DA1799185140DA0F89461692002B9F
:1030F00008D1802310220D99DB000B4091430D91E4
:10310000002B30D10D9A6123920600D5412310A9DE
:103110001F228C46DBB20A3B0A93099B62444C4651
:10312000149515975D461700B34699460E9E08E024
:103130003033DBB201357B55B4420ED3202D0CD099
:1031400004003100200000F051F9CBB20929EFD979
:103150000A9A94466344DBB2ECE74B465E46159F01
:10316000AB46149D09930D9B0693434605930B9B19
:1031700004930E9B0393169B02935B46AAE50D9A5C
:103180006123920600D54123DBB20A3B0F934346ED
:10319000002210A9159353468C46914616931F3270
:1031A000099B6244B2465C461495BB464D460600F8
:1031B000994690460E9F0BE03032D2B2434601351D
:1031C0005A550023A3426BD0202D6BD006000C0073
:1031D0003A0000233000210000F04AF9D2B2092A57
:1031E000EAD90F9B9C466244D2B2E7E70A9B1B6870
:1031F0009946002B08D18023DB00110013401022D8
:1032000091430D91002B30D10D9A6123920600D588
:10321000412310A91F228C46DBB20A3B0A93099B6B
:1032200062444C46149515975D461700B34699467F
:103230000E9E08E03033DBB201357B55B4420ED32D
:10324000202D0CD004003100200000F0CFF8CBB2CC
:103250000929EFD90A9A94466344DBB2ECE74B465E
:103260005E46159FAB46149D09930D9B06934346FE
:1032700005930B9B04930E9B0393002302935B46E1
:1032800028E5A74200D880E6169B179A98464B4639
:103290005746B1461094119592461E00159D94E62E
:1032A000B74291D9159B564698464B460993169BB3
:1032B000A9469A465F46149DD5E60A9B1B68D91716
:1032C0005A184A4044E50A9B1B689B46E9E4A84615
:1032D00002E69946E3E5C04600B585B003910121B9
:1032E00002900093034813004A4202A9FFF73CFAF8
:1032F00005B000BD351F001010B5094A0300146861
:1033000084B0002C08D0012200910648524203A943
:10331000A047012004B010BD01F07CF80020F9E7BF
:1033200000160020251F001001480421014B1847FA
:103330006004002059330010142310B501001888D0
:1033400004331B88984710BD162310B50100188858
:1033500002331B88984710BDF8B54746CE4680B566
:103360000F1E19D0142399460433040000250126AA
:1033700098464B461888434621681B88984701C4E5
:10338000431E9841013540420640AF42F1D1300022
:10339000C0BCB946B046F8BD0126F8E7124A936FA3
:1033A0009B0815D29066D166002905D0FFE7FFE79C
:1033B000FFE7516F106F704704B580210906C217EF
:1033C0005140002800D0C84303F0FAFC002104BD9E
:1033D000F0B5146E556E576F166FFFF7E3FF146666
:1033E000556657671667F0BD000000D0114A936F0D
:1033F0009B0813D210665166002905D0FFE7FFE74E
:10340000FFE7516F106F704704B5002801D000200E
:10341000C04303F0D5FC002104BDC046F0B5146ED6
:10342000556E576F166FFFF7E5FF146655665767C1
:103430001667F0BD000000D094464E4A926F920885
:10344000624601D230E0C046F0B54A4EB56F6D0815
:10345000FCD3346E756E776F366F00F025F89446A6
:10346000444A14665566576716676246F0BDC04603
:103470009446404A926F9208624601D258E0C04694
:10348000F0B53C4EB56F6D08FCD3346E756E776F3A
:10349000366F00F04DF89446364A14665566576705
:1034A00016676246F0BDC046002B24DB11D0002910
:1034B0003EDA00B5C943404200D1013100F038F88E
:1034C000C943404200D10131DB43524200D10133B4
:1034D00000BD002AEBD1002801D1002905D0002031
:1034E000C90FC90701D1C043410800B503F060FC12
:1034F0000022002300BD00B500290ADBDB43524255
:1035000000D1013300F014F8C943404200D1013129
:1035100000BDC943404200D10131DB43524200D1DA
:10352000013300F005F8DB43524200D1013300BD06
:10353000002923D1002B18D1002A0CD0BC460D4FF6
:1035400038667A6600210023FFE7FFE7FFE77A6F1E
:10355000386F67467047002801D00748010000B562
:1035600003F026FC0022002300BD02000B00002017
:1035700000217047000000D0FFFFFFFF002B00D0AC
:10358000BDE0130C26D1002AE7D080B4104F396675
:103590007A66FFE7FFE730B4040C7B6F396F1B04DA
:1035A00023433B66FFE7FFE7FFE7C04684B27B6F3C
:1035B0003D6F1B0423433B66FFE7FFE7C046002344
:1035C0002C042D0C7A6F386F00196941B0BC70471C
:1035D000000000D0F0B594460025140E01D112026F
:1035E0000835140F01D112010435940F01D1920056
:1035F0000235D40F01D152000135D40B0134254FCF
:103600007C66254C3C660E0C93B2FFE7FFE7FFE7B4
:103610003C6F6643360C7703BE467343DF0B5B0497
:10362000C01AB941130C7343DB18C91ACE0866439C
:10363000360CB64493B273431F0F1B01C01AB94135
:10364000130C73431F0B1B05C01AB941860D8F0263
:103650003E436643360C092D24DB520A7243801A1E
:103660007703460A6643360C16235B1BDE40DF40B9
:10367000BF1964466643821B704604350633010059
:10368000D940A840C01900D30131A24206D200237C
:10369000F0BD0000000000D0FFFFFFFF121B013053
:1036A000F3D3F1E709277F1BFE406446A2B27243C1
:1036B000801A00D20139220C7243130C1204821AB0
:1036C00099410B007046043513370100F940A840BA
:1036D000801900D30131002B02D1A2420AD2F0BDE1
:1036E000013000D30131121BFAD2013BF8D1A242C2
:1036F00000D2F0BD013000D30131121BF7E7F0B565
:103700001C0C00D080E00CB400251C0A04D11B0264
:10371000160E3343120208351C0B04D11B01160F81
:103720003343120104359C0B04D19B00960F3343A5
:1037300092000235DC0B02D192185B4101351C006E
:10374000971864410134464F7C66464C3C660E0C2B
:10375000FFE7FFE7FFE7C0463C6F6643360C7703A1
:10376000BE4697B27743C01B00D20139C01B00D2BE
:1037700001399FB27743C91BC91B170C77437E04DD
:10378000FF0B801BB941CE086643360C0C2D33DB92
:10379000B644120B1F053A431B0B97B27743C01B6D
:1037A00000D201399FB27743C91B170C77433E04FF
:1037B0003F0C801BB941860D8F023E43664329278B
:1037C0007F1BFE400C3D7746AF40BF1930BCA2B214
:1037D000ABB272437343801A9941220C7243130CAB
:1037E0001204801A994102000B000137001BA94105
:1037F000F9D2781E0021F0BD0C277F1BFE407746D2
:103800007F0BAF40FF19E0E700245D1C07D0144F89
:103810007D663966FFE7FFE7FFE7FFE73C6F95B29C
:103820009EB265436643401BB141150C1E0C6543B7
:10383000664336042F0C3E432D04401BB141994290
:1038400004D202000B0020000021F0BD01D1904203
:10385000F7D3801A994101349942F2D3F6E7000078
:10386000000000D0FFFFFFFF48404140484018B42F
:103870001B4B5B68FC46019308BD04DFF33A001064
:1038800018B4174B1B68FC46019308BD00DFFD3AD6
:1038900000109446134A926F920809D2624618B4F7
:1038A0000F4BDB68FC46019308BD0CDFB53D0010F3
:1038B0000C4AF0B5146E556E576F166F6246FFF7DF
:1038C000EEFF084A1466556657671667F0BD18B4D0
:1038D000034B9B68FC46019308BD08DF593C001070
:1038E000180A0020000000D0FFB550404240504070
:1038F00059404B40594000E0FFB5154F4C00640D56
:1039000003D0BC4204D10C0314D80020090D0905D2
:103910005C00640D03D0BC4204D11C030AD8002211
:103920001B0D1B0501264B4009D44B4003D58B4290
:1039300000D18242FFBD9942FCD19042FFBD0B43B2
:10394000DB1803431343F5D0C9434918FFBD0000FA
:10395000FF07000000B5FFF7CFFF804100BDC04664
:1039600000B5FFF7C9FF01D9002000BD012000BD4F
:1039700000B5FFF7B9FF01D9002000BD012000BD4F
:1039800000B5FFF7B1FF804100BD012040054A00AE
:10399000121804D85A00121801D8002070470120CC
:1039A00070470020704700000021002805D17047B3
:1039B000C1174840401AFAD0C90713B5064B1B6817
:1039C00098470CBC441CA2401005120B0349091B6C
:1039D00009051943114310BD3C1600201F040000C7
:1039E00010B54C00620D8023D218DB00D21A5B05A3
:1039F0007E2A10DD9E3A13DACC17090349081943D1
:103A00005242D140640001341532202A05DAD040F8
:103A10000843604310BD002010BD0846604310BD40
:103A2000C80FC018013810BD18B4044B5B6AFC46BF
:103A3000019308BD24DFE13F00100000180A0020B8
:103A4000132370B51D78012D10D00BDD1948FFF739
:103A50007BFC194C01008022200000F0F5FB022DB8
:103A600001D070BD144C154BA364FAE7134B124CF4
:103A700023606360A360E36023616361A361E3612A
:103A800023626362A362E36223636363A363E3630A
:103A900023646364A364E36423656365A365E365EA
:103AA00023666366A366E36623676367A367E367CA
:103AB000A364D6E753440000180A0020C13A00105E
:103AC00007B5604601880A0A0230DF2AFAD1C9B276
:103AD000820804D3028840880004104300E0006894
:103AE000014A5050039007BD180A00200FB403BCD0
:103AF0000CBCF0B50124E407634000E0F0B50C0D08
:103B0000CF0F661E3605891B640503D3C9434042A7
:103B100000D30131640D03D0661CF60A07D0E41B04
:103B200000207F00791C89078912803C24031D0D29
:103B3000DF0F6E1E36059B1B6D0503D3DB43524220
:103B400000D301336D0D03D06E1CF60A07D0ED1BB8
:103B500000227F007B1C9B079B12803D2D032F1BA7
:103B6000661B58D4A446202E46DA20371400BC40E9
:103B70001D00BD40F24033412A4380185941CB0F0C
:103B800005D0C943C04300226442504151416246BE
:103B90004D0D28D10D0D07D100281FD0241940410B
:103BA0004941013A0D0DF9D0640006D3013000D32C
:103BB0000131002C01D140084000013A0BD4941C83
:103BC000E40A04D112051144DB071944F0BDD907FA
:103BD000204B194300E0D9070020F0BD0029DDD1BA
:103BE000002CDBD1F0BD0132C6074008CD072843C9
:103BF0004908002EE1D0D9E73C2E29DA203E403793
:103C00001400BC4000D00124F24014431A00BB4011
:103C10001C43D317ACE7AC46202F08DA203604004B
:103C2000B4400D00B540F84039412843A5E73C2F8A
:103C30000CDA203F40360400B44000D00124F840A4
:103C400004430800B1400C43C117EAE71000190013
:103C5000002494E70000F07FF0B50C0D661E3605D9
:103C6000891BE60A6405640D02D0651CED0A04D0C8
:103C7000002001210905803C2403A4461C0D671E79
:103C80003F05DB1BE70A6405640D02D0651CED0AE5
:103C900004D0002201231B05803C240377406444A8
:103CA00097B484B296B27443070C7E43150C6F43ED
:103CB00080B26843361802D3012000043F18300454
:103CC000350C00197D41844688B29AB250430C0CE1
:103CD00062431F0C7C438EB27E43921902D30126AD
:103CE0003604A4191604170C3618674101BC81B2BA
:103CF0009AB25143040C62431B0C5C4380B258439C
:103D0000121802D30120000424181004130C4018C8
:103D100063412D185E410020474106BC88B293B232
:103D200058430C0C6343120C544389B251435B1843
:103D300002D301210904641819041A0C09186241FC
:103D40006D1856410020474118BCF902720D11430D
:103D5000F0026A0D1043ED020A0D03D16D194041C6
:103D60004941013B124E9B1B7600B3420ED26D00BF
:103D700007D30130002671416646354301D1400822
:103D800040001B05C918E4072144F0BD0BDA0133DC
:103D900006D1013004D101314F0D01D04908F2E7BD
:103DA000E1070020F0BD013631050020EBE70000FF
:103DB000FF030000F0B51C0D671E3F05DB1BE70A83
:103DC0006405640D02D0661CF60A04D000220123AB
:103DD0001B05803C2403D0252D060026F6432E66C5
:103DE0001E096E66CE0FF619B44649004F0D02D07B
:103DF0007E1CF60A03D000200021403F3F033E1BFB
:103E0000B600B444013F7F05C91B49082E6F013637
:103E100076089C02950D25437543ED137543AD134C
:103E200001356D10F603761B0CB4CC02450D2C4306
:103E3000A2B2B3B25A43270C7B43350C6F43A4B2F2
:103E40006C431B1902D3012424043F191C041D0CCC
:103E5000A4187D4124196D41009A91B2ACB261431E
:103E6000170C7C432B0C5F4392B25A43A41802D325
:103E700001221204BF182204230C52187B41019C1A
:103E80006C431B19520ED9010A434401A01A81B296
:103E9000B2B2514303145A43360C734387B277438B
:103EA000D617D21900277E4136049B191704160C29
:103EB0007F185E417316ED18F301002680337541BB
:103EC000A90F06D16400690AE8055B0A184309D204
:103ED0002FE00422944480337541A90AA8059B0A67
:103EE000184326D3404149412404009A019B0D0008
:103EF0005543641B4343E41A95B286B27543170CCD
:103F00007E43030C5F4392B25A43B61802D3012298
:103F10001204BF183204330C52197B4152429C41A7
:103F2000002C02D40022013051414008CA0710433E
:103F3000490802B06246D7079210084BD218084BC6
:103F40009A4203D212058918C919F0BD0020002A2F
:103F500001DC3900F0BD01331905F5E7FD03000070
:103F6000FE070000624618CA944600291ADAC018F3
:103F700061415B463B415C46B4405246FA402243B5
:103F800044464D4662416B41904699462B46B340AC
:103F90003D41FC401C4352465B46A241AB41924628
:103FA0009B467047C01AA1414B463B414C46B4402A
:103FB0004246FA40224354465D4662416B41924676
:103FC0009B462B46B3403D41FC401C4342464B467A
:103FD000A241AB41904699467047002000217047AE
:103FE000002200B5203200F004F8080000BD0000F7
:103FF00000220B15F1D410B5944600F02FF81414DC
:10400000013400DA0021CB17134C20476244343AC4
:104010000CD40C2A07DA040091409040524220321E
:10402000D440214310BDD843D94310BD203207D41A
:104030000C469440524220321141D040204310BDE2
:104040000800C917203203D452422032104110BD5B
:104050001800190010BD00000D4000100A0DCC0F13
:10406000531E1B05C91A520503D3C943404200D34E
:104070000131520D03D0531CDB0A07D0121B002064
:104080006400611C89078912803A1203014BD21A1D
:1040900070470000FF03000051434343C9188C469A
:1040A000110C83B24B4310B4040C614392B280B242
:1040B000504362431C041B0C001910BC59411304EB
:1040C000120CC01851416144704700004840414003
:1040D00048400E4B5B6818470C4B1B6818470C4A4E
:1040E000936F9B0802D2094BDB681847F0B5146E3A
:1040F000556E576F166FFFF7F6FF054A1466556643
:1041000057671667F0BD014B9B681847180B0020D6
:10411000000000D0C10FC90700D54042002817D0C9
:10412000F44603B40B4B1B68984706BC81409E388D
:104130004042803107D20B0607D04900490AC0052A
:104140001043084360470130F8E7490A8902F5E760
:10415000704700003C160020034BDB6FFC461847FD
:104160007CDFFD4100100000180B0020132310B568
:1041700012481C78FFF7E8F80100012C0AD003DD93
:1041800080220F4800F060F80E48FFF7D5F80E4B7C
:10419000186010BD0A4C5422200000F055F80B4B5B
:1041A0006365A365E36523666366A366E3662367C9
:1041B0006367A367E3672362E361E5E753460000B3
:1041C000180B00204C3300003C160020D141001099
:1041D00007B5604601880A0A0230DF2AFAD1C9B25F
:1041E000820804D3028840880004104300E000687D
:1041F000014A5050039007BD180B0020C30FDB0786
:1042000041000A0E07D0FF2A08D00909054A89187B
:104210001943400770471900002070470249C91828
:10422000FAE70000000000380000F07F0148042198
:10423000014B18477004002059330010014B1B68D4
:104240001847000070040020014B5B68184700000D
:1042500070040020F0B5D64646464F468246C0B5AB
:1042600015000E00002A39DD4B1E98461E4B00201B
:10427000002499460CE043461B5D671C0D3B5A42E7
:104280005341325DDBB20A2A0AD0BD4219D03C004C
:10429000002CF0D15346325D1B7C671C0A2AF4D1F6
:1042A000002BF2D1A04204DA5346211A1B683018C1
:1042B00098475346484602211B6898473800BD423C
:1042C000E5D1A84204DA5346291A1B6830189847EA
:1042D000335D0D3B5A42534152461374E0BCBA461B
:1042E000B146A846F0BDC04604710010F8B5CE46F0
:1042F00047460B6806000D0080B5802B07D05A1C7E
:104300002A60ED182E71C0BCB946B046F8BD134BFB
:104310001C68002C1BD0124B98460B1D994602E0DE
:10432000E468002C13D02768002FF9D043461B689F
:10433000002B01D09C42F3D1637C2A68002B09D06A
:1043400020004946FFF786FFE468002CEBD10122EC
:104350000023D5E711004846B847E1E7F8110020EF
:10436000FC110020F0B5CE46474680B583B06B46C1
:10437000DE1CD02330701B061C68234B804601A92D
:104380001800994602F024FD071E27D01F4B1C6819
:10439000002C2FD01E4D02E0E468002C12D02268C1
:1043A000002AF9D02B68002B01D0A342F4D1637C02
:1043B000002B0FD0200001223100FFF74BFFE468F3
:1043C000002CECD1002F15D1404603B0C0BCB9463B
:1043D000B046F0BD012130009047DDE7019B64B29B
:1043E0009C420BD0484602F003FD084B01271C6895
:1043F000002CCFD1484602F0D3FCE5E7034B1C6804
:10440000002CC7D1E0E7C046EC080020F8110020DE
:10441000FC110020F0B5DE4657464E464546E0B555
:1044200085B0070002F01AFCD0231B061C68434B22
:1044300003AD0600290018009B4602F0C9FC00905D
:10444000002862D03E4B1C689A46002C6BD03D4B36
:1044500098460A2399463C4B01934346B0463E009A
:104460001F0002E0E468002C23D02268002AF9D063
:104470003B68002B01D0A342F4D1637C002B2FD0EA
:10448000424631002000FFF7E5FE4B462B70637C6F
:10449000002B2DD0237C2268002B2ED102210198E5
:1044A00090472B780D3B5A4253412374E468002C0B
:1044B000DBD1009B4646002B35D153461C68002CAF
:1044C00006D06368002B1CD09847E468002CF8D114
:1044D000300005B0F0BCBB46B246A946A046F0BDD0
:1044E0004146300090474B462B70637C002BD1D166
:1044F0000121280023689847B4E70121280090474C
:10450000CFE7E468002CDCD1E2E7039B64B29C4275
:104510000DD0584602F06CFC094B9A461C680123EA
:104520000093002C93D1584602F03AFCC5E7044BA7
:104530001C689A46002C00D089E7C9E7EC080020E7
:10454000F8110020FC110020047100100D4A1368BE
:10455000002B13D0834202D109E0984208D01A0000
:10456000DB68002BF9D1002900D0D06070471A0019
:104570000029FBD1DB68D360C160F7E70029F5D0E3
:104580001060F3E7F8110020F0B54646D6464F46D6
:10459000D023C0B51B061F68324BA2B004000D002B
:1045A000180001A9984602F013FC061E07D1019BD2
:1045B0007FB29F4203D0404602F01AFC01368422AB
:1045C000002101A8FFF73AFE2B002200264801A98E
:1045D000FEF782FE019B0700002B15D1234B1C68C0
:1045E000002C06D06368002B0CD09847E468002CA0
:1045F000F8D1002E2FD1380022B0E0BCBA46B14627
:10460000A846F0BDE468EBE7184B1D689A46002DFC
:1046100025D0174B994602E0ED68002D13D02C6889
:10462000002CF9D04B461B68002B01D09D42F3D1E2
:104630006B7C019A002B0AD0280002A9FFF70AFE22
:10464000ED68002DEBD1534601951C68C8E71100B9
:1046500002A8A047E0E7404602F0A2FBCBE70195A5
:10466000C7E7C046EC080020ED420010F81100201A
:10467000FC1100200FB400B583B004A901C9019159
:10468000FFF782FF03B008BC04B0184710B500F074
:1046900033F910BD7047C0460022014B1A707047B5
:1046A000721600204B790020FF2B0BD18B79002B49
:1046B00008D1CB79012B05D1082A03D9024B8A787E
:1046C00009301A707047C0467216002001207047EA
:1046D00070B5002915D115495379107909781B0255
:1046E00003430020994200D070BD5378012B0AD0BB
:1046F000022BF9D1002064220021FDF785FA012068
:10470000F2E70120F0E79478D27805001202144312
:10471000D20502D5620A93401D000548FEF70CFE43
:104720007F210300214028009847C04672160020D0
:1047300055420000012303700048704708710010C3
:104740004B780A781B0213438A7810B512041A4377
:10475000CB781B0613439622D200934200D010BDA3
:104760000348FEF7E9FD0021030008009847C04612
:104770005542000070B5184C82B006000D002000B4
:1047800001A902F025FB002808D1D0231B06019ABD
:104790001B689A421CD0200002F02AFB002001F086
:1047A0004FFC002807D103256D42200002F0F8FAE3
:1047B000280002B070BD002001F05AFC0028F2D0A1
:1047C0002A003100002001F05FFC051EEBD0ECE771
:1047D00003256D42ECE7C04644160020F0B5DE46E6
:1047E0004E465746C0B5344B82B081460D00180086
:1047F00001A99B4602F0ECFA002808D1D0231B0641
:10480000019A1B689A4250D0584602F0F1FA0020F3
:1048100001F016FC002840D00024002D42DD274B7B
:104820009A4612E04B460020191901F0A1FC06003F
:1048300000F0BEFC002001F05FFCFCF707FB5346D4
:1048400018605960A419AC422CDA002001F0AAFCCF
:104850002E1B0200B04200DD3200002AE2D100F03F
:10486000A7FC002001F048FC002001F0E9FB002833
:1048700018D0002001F096FC0028E4D1FCF7E6FAFD
:10488000002753460E4E1A685B6892197B41994285
:1048900008D8D8D19042D6D904E000200021074B97
:1048A00018605960584602F07BFA02B0E0BCBB4683
:1048B000B246A946F0BDC04644160020100A0020AA
:1048C00020A107001F2010B5FCF7B8FFFA20002137
:1048D000800010BD10B5074C0021200002F078FACE
:1048E000002800D110BD00F063FC200002F058FA4F
:1048F000F8E7C0464416002070B51E4B84B01B7804
:1049000001F03AFE1F201C49FCF7A8FF01211F20DF
:10491000FCF782FF1948FCF78FFBFCF797F80600BD
:10492000FCF794FAFA2204000D00002392001219F9
:104930006B41994214D811D00121029100210191BB
:104940000F4930000091FCF785F80400631E9C417C
:10495000E4B2002808D1200004B070BD9042EBD929
:1049600001225242D317E7E701210648FFF7EEFD87
:10497000F1E7C04664730010D548001044160020CB
:10498000C54800108004002000487047C071001026
:10499000004870476C71001070B504001648037829
:1049A000002B20D0002C06D1144B15484380063B29
:1049B000FF3B038070BD052C1CD8124BA400E458AB
:1049C0000F480123811C013C04E001330A800231BD
:1049D000142B0CD0E25CDDB2002AF6D1C0236D00AE
:1049E0009B002B43E5E7112102F00CF8DAE7CA231C
:1049F0009B00DEE70020DDE75C16002009040000D4
:104A0000D0110020D47100109823F0B54546DE4641
:104A100057464E46484AE0B5D358802598461C0074
:104A2000102385B0029343466D022C402B4214D0D4
:104A3000012123200022414B2C001954D9702F3121
:104A40005A541A74002001323D4901F067F880225F
:104A50003C4B92021A653C4B02934346DB061BD447
:104A6000802342469B011A4208D01C43324B1B6DE7
:104A7000DB0356D58022334B52021A65802342460F
:104A80005B011A4240D1444551D105B0F0BCBB4650
:104A9000B246A946A046F0BD274B9F6D9A46002F0F
:104AA00024D0284B00269B46244B0125039303E08A
:104AB0006D000136202E19D02F42F9D05346DB6D00
:104AC0005B4601229D6573085C00039B91469C46F2
:104AD000B243A41864016444200000F011FA0028D5
:104AE00006D1AF4301366D00002FE3D1029CB7E73A
:104AF0004B46A28AA17800200093002301F036F8EB
:104B0000200000F0D5F9ECE700210B4A00201160ED
:104B100001221C4300F0D8FF80220A4B12031A65C1
:104B2000B1E701220221002000F05AFFA2E741462E
:104B300006486140FCF7FAFC00001150001200200A
:104B4000000010500030115010000100EC710010F6
:104B500010B501210520FCF75FFE10BD01222321C5
:104B6000002310B506484254C2702F328354037498
:104B7000002200212030013300F042FA10BDC0466F
:104B8000001200208022024B5202DA647047C046B5
:104B90000020115070B5050000F062F905201A4997
:104BA000FCF75CFE8022194C00212000D200FFF7A8
:104BB00045FB174B174A40201A600023012221268B
:104BC00015496270E270A083A1600B60A087023873
:104BD000A3552354114912486036FF366360E160E3
:104BE00022706684A062036063622033E2540D4B3E
:104BF000E1621A6480229205DA6490220A49280050
:104C00009950FFF7BFFF70BD094A00100012002045
:104C10000816002080011050840010500001105030
:104C20008000105000001150103001000B785B061E
:104C300002D14B78052B09D0012123200022054BFE
:104C4000D97019542F311A745A5470478A78024B0C
:104C50001A60F1E700120020000011500720F0B5A3
:104C60004F464646D6464A79CC780B79104000022A
:104C7000A4071843A30F99469A467F23C0B58F789F
:104C80003B4E3B40FD0959004A195201B21897703A
:104C900001276F4057705F425F41D7704A46012A33
:104CA0004CD040284ED84F464A195201B218908332
:104CB0009777DA00012D4AD02E4F0024BC469F0181
:104CC0006244F719BA601460002B0FD100226B0107
:104CD000F3185A60284ADA60012249194B01012071
:104CE000F254E0BCBA46B146A846F0BDDA00234B08
:104CF0009C4662447A604B195B01F25C002AEBD15E
:104D00001F4FF3183A68DA60031C402800D940238B
:104D10003F209BB2D318034201D0834340333B6012
:104D2000184B534052469406A022234312061A43BE
:104D30004B195B01F3185B681A60CDE78022D20043
:104D40009042B0D3104B01001800FCF7EFFB0F4C62
:104D50009F01A44600246244F719BA621460002B34
:104D6000B4D0084ADB00944663447B62C3E7C04684
:104D70000012002084001050000110500400105058
:104D80000816002000001050007200108000105023
:104D900010B57F200C0020404000E40911000019EC
:104DA0001A00044B4001C018012300F029F901202A
:104DB00010BDC046001200207F2270B514000C40C8
:104DC000CD0964000B4E60194001301883781A42F7
:104DD00004D17D3ADB09D31A074A9366802207493A
:104DE000120100F06BF80122641964013419227475
:104DF00070BDC0460012002000201150FFF7FFFFD9
:104E00007F2270B514000C40CD0964000A4E601971
:104E10004001301883781A4204D17D3ADB09D31A55
:104E2000064A93660022064900F048F800226419F9
:104E300064013419227470BD00120020003011503A
:104E4000FFF7FFFF7F21C209034B9200014010B51D
:104E5000D2580248FCF76AFB940400202872001024
:104E600080220E4B520410B51A600D4B0D491A608A
:104E700010008B689843FBD10B4C9C220021200032
:104E8000FFF7DCF98022002152010848FFF7D6F92C
:104E9000092363670333A36710BDC04600E00040E9
:104EA00000F0004000C00040000011500000105011
:104EB00000230361436183617047C04610B5836876
:104EC000002901D01C682140002A11D08024E40070
:104ED000114322420CD01A6822420BD1074A0A40E1
:104EE0001A60FFE7FFE7FFE7FFE7FFE7FFE78368F9
:104EF000196010BD8078FFF7A5FFC046FFFBFFFFDC
:104F0000F8B5457C0400002D00D166E08368407848
:104F10001A68A38A9205960D002845D1F3189BB212
:104F2000A382A28B668A111C3F2A2BD98FB2BC4662
:104F3000F21A97B2BC4523D88FB2E1829E4249D380
:104F400046D0002826D08023DB001F43E3781A00D8
:104F5000511E8A4101214B40A168E3700B68520346
:104F60003A435B0540D4224B13400B60FFE7FFE759
:104F7000FFE7FFE7FFE7FFE70020A3681A60F8BD3F
:104F8000111CD9E740218FB2BC46F21A97B2BC453A
:104F9000D2D9F5E7A1693A00C918E068FFF754F9DA
:104FA00084231B021F43D1E7A0693200C018E168C7
:104FB000FFF74AF9A38A6078F3189BB2A38200280E
:104FC000AFD0E28AB242ACD963820023E382D6E753
:104FD0002800D4E70748FCF7A9FA7F238178064A1E
:104FE00006481940FCF7A2FAA078FFF72BFFC0464D
:104FF000FFFBFFFF74720010940400204872001041
:1050000070B50400002B49D0437C002B01D0002355
:1050100003740023A08BA3826282031C3F2830D933
:1050200098B2904223D89DB2E382012363746378DF
:10503000A161002B2AD08023DB001D43E3781A00F6
:10504000511E8A4101214B40A168E3700B68520355
:105050002A435B0525D4144B13400B60FFE7FFE7A1
:10506000FFE7FFE7FFE7FFE7A3681A6070BD131CC7
:105070009DB2E382012363746378A161002BDAD1CE
:1050800004E0402398B29042CDD9F0E72A00E068CE
:10509000FFF7DAF884231B021D43CFE7FFF730FF49
:1050A000E4E7A078FFF7CEFEFFFBFFFF024B587846
:1050B000431E9841C0B27047540F0020024B18782D
:1050C0004007C00F7047C046540F0020014B1878AE
:1050D0007047C0466E160020F8B54746CE4680B5EC
:1050E000294F05003B78002B04D00120C0BCB946F5
:1050F000B046F8BD372200212448FFF79FF8244C22
:105100002000FBF799FF234B1C60234C20001C3030
:10511000FBF7AEFF200001F029FC204B204E1C6065
:10512000204B9846002B04D03000FFF703FB1E4BAA
:105130001860424600243378002A1DD01B4A90464E
:10514000194A91469C4210D31BD1434698470134DB
:105150003378E4B2A342F5D22800FFF71BFD280004
:10516000FFF7F6FC01233B70BFE74B461A6863006C
:105170001B19DB009B58E9E701F020F83378002B7E
:10518000EAD000231B68FFDE6E160020540F0020BB
:105190000C0F00208C0F00209C040020900F00209A
:1051A0006D160020354700101C0C0020BD6100105A
:1051B000F0B5DE4657464E464546E0B58FB001F0A5
:1051C000E1F9002800D149E1C44B0BAC9A4657469F
:1051D000C34B9B46C34B0393C34B02933D68EA69A1
:1051E000EFF3108172B61368002BFCD0BFF35F8F12
:1051F00029622800210001F02BFAEA692B6ABFF32B
:105200005F8F0021116083F31088002800D125E111
:105210006378082BE2D85A469B00D3589F466368B0
:10522000002BDBD0A0689847D8E77F202179AE4AD1
:10523000084046009319CD095B191A000126203257
:105240005579B543557155790336B54355710028E5
:1052500000D10AE1A54ADB7C002A06D0A44A1278D4
:10526000934200D291E19B1ADBB2002B00D0F5E013
:10527000A04DA36862792078A847AFE79A4B012236
:105280009A461B780121134352461370252350463A
:10529000D25C55468A43C254C25C04208243EA541D
:1052A0000133EA5C26788A43EA54EA5C8243EA5492
:1052B000002000F037FE602223791A40602A0DD0CA
:1052C000402A00D1EDE0DB06DB0E012B00D167E1C7
:1052D000022B00D120E1002B00D1F1E02078002149
:1052E000FFF76AFD80212078FFF766FD76E7824BA5
:1052F000002B00D172E700E000BF6FE77F4B002B6F
:1053000000D16BE7784B18780007C00F00E000BFB2
:1053100064E7774E754A00253378002A00D1B3E060
:10532000774A90469D4208D39D4200D0AFE00135B8
:10533000EDB29D4200D951E7F6D2424611686A00AB
:105340005219D2008A185269002AF0D0207890476A
:1053500001353378EDB29D42E4D93FE7029D2378D1
:105360003722002128009846FEF768FF1022FF210F
:105370006448FEF763FF28001222FF211330FEF776
:105380005DFF00F0C5FD5A4E584A00253378002ACB
:1053900000D170E05C4A9146594A92464A46B94665
:1053A0004746B0461600AB4248D86AD133003800B1
:1053B0009847434601351B78EDB2AB42F3D24F46D6
:1053C000524B002B00D109E700E000BF06E723782D
:1053D00037229846444B00219A461800FEF72EFFCC
:1053E00053461022D81CFF21FEF728FF50461222F8
:1053F000FF211330FEF722FF00F08AFD3C4E3B4AAE
:1054000000253378002A45D03F4A91463C4A019214
:105410004A46B9464746B04616009D4216D330D19B
:10542000330038009847434601351B78EDB2AB4254
:10543000F3D24F46524623799370CFE653461A680B
:105440006B005B19DB00D3185B68B0E7019B1A683F
:105450006B005B19DB00D3185B68E2E70FB0F0BCB0
:10546000BB46B246A946A046F0BDA3686279207843
:1054700000F06CFDB2E6404600F0DEFE3378002B13
:105480009ED000235B68FFDE002B00D1A6E6002340
:105490005B69FFDE404600F0CFFE3378002BC9D0B9
:1054A000EFE71B48002800D118E700F03BFD002182
:1054B00030000CAA00E000BF002800D08EE60DE707
:1054C000202A00D19DE0002A00D007E76379092B4C
:1054D00000D903E70F4A9B00D3589F46900F002046
:1054E000A072001065620010540F002035470010B4
:1054F0006D16002031640010000000000000000064
:105500001C0C0020570F0020396200100000000022
:1055100000000000C47200107F25217A0D40082D84
:1055200000D9DBE6CB09994653466D005B19CC48A0
:105530004B44DB7C002806D0CA480078834200D266
:1055400082E01B1ADBB2002B78D1002A00D0ECE0FD
:10555000C54B01930222637998469343012B00D1F6
:10556000E7E04346002B00D0B8E62B0053444B4401
:1055700020335B790AAA9B07DB0F023213803000CD
:1055800002230CA900F06EFC28E6B84A5800126805
:10559000C318DB00D318002B00D15FE71D6968E654
:1055A000237A0F2B00D999E6AD4A5344DB78002AC1
:1055B00005D0AC4A1278934260D39B1ADBB2002B21
:1055C00000D08BE6AA48A84D00F0ACFC00213000CA
:1055D000EB680CAA9847002800D0FFE56022110074
:1055E000237919401A4200D078E663790A2B00D15A
:1055F000D5E00B2B00D071E630000CA900F01CFCAC
:10560000ECE5237A0F2B00D968E6954A5344DB7802
:10561000002A06D0934A1278934200D2B4E09B1A33
:10562000DBB2002B00D059E691488F4D00F07AFC98
:1056300000213000EB680CAA98473DE7002A00D013
:105640004CE60023019385E7884801905800844682
:10565000019863440068DB00C3180193002A00D15D
:1056600078E7002B00D139E6D86800F05BFC019B9D
:1056700000213000DB680CAA98471DE77B4A5900DF
:105680001568CB18DB00ED18002D00D126E6E86880
:105690009AE7E388012B00D020E608222B78934379
:1056A00052461370A8E7022029780AAB9A1C8B0691
:1056B0008908DB0F01400B4360E7A27906926B7803
:1056C000002B02D1002A00D081E05346069A300018
:1056D0000CA95A7000F0B0FB80E56B780AAA023280
:1056E0001370300001230CA900F0BCFB76E5E388C1
:1056F000A0791B0A0F2B00D9F0E55E4A9B00D35816
:105700009F460CA800F014FC3000A179FFF726FAA0
:1057100002222B7813432B7060E5E388012B00D025
:10572000DCE508222B781343BAE74F4B504801932E
:105730009BE7E388002B11D143463000012B37D083
:10574000FFF73AFB2B00022153444B4420335A7994
:105750000A4301215A715A790A435A71019D002D59
:1057600000D13BE5E86800F0DDFBEB680CAA002106
:1057700030009847002000F0D5FB26235246D35C2A
:10578000DB0700D52AE537E7384A59001568CB18FA
:10579000DB00ED18002D00D1A0E5E86846E70AAB74
:1057A0009A1C1170012330000CA900F05BFB15E579
:1057B000FFF726FB2B00022153444B4420335A7938
:1057C0008A4341465A715A798A435A71C6E7501E34
:1057D000C0B2FFF7DDF8002800D17FE54378022B47
:1057E00000D07BE50121C279B046931152110B40E4
:1057F0000A4012015B0113432A782F318A43134375
:105800002B7009239946C37882781B021343C3186F
:105810000793144B81440193114B0893134B099345
:105820003B004F469946079BBB4200D8C9E0002386
:105830007A7805930B2A04D13B780597FB181F0053
:105840005A78042A00D07EE0079B089ADB1B9BB2A3
:105850000493019B00251B78002A1CD125E0C0463B
:10586000354700106D1600202C7300101C0C002012
:1058700051630010EC7200109D4223D1039B39004C
:105880004046049A984700281FD1019B01351B7898
:10589000EDB2AB4257D39D42EED2099B1A686B0022
:1058A0005B19DB00D3189B68E9E739004046049A8E
:1058B00000F0D8FC061E09D1019B4F461B78002B37
:1058C00000D10BE500239B68FFDE0600082E3AD9C5
:1058D000049B9E4237D85346BA789B18D978FF2943
:1058E00031D1DD70059B002B12D018009B789342BC
:1058F00029D101797A79914225D1C278012A07D933
:105900000433013A534418002900D2B2FEF796FC42
:105910007F213A0000238C465178052907D1614642
:1059200090780140490051441331C0090D54117859
:105930005B189BB252189E42EED8019BBF191B7890
:10594000AB4200D36FE74F46C8E4224B002B00D197
:10595000C4E400E000BF05000AAA944602236344A1
:105960009846A91C02221800FEF76EFC43462A0046
:1059700030001B880CA900F075FA9DE5164B002B32
:1059800000D1ABE400E000BF021E00D1A6E430006D
:1059900013780CA900F066FA8EE52189FEF7FCFF6A
:1059A000021EF4D19AE4FEF7F3FF051ED4D195E46C
:1059B000FEF7EAFF122302000CA9300000F052FAB1
:1059C0007AE5064B46464F46002B00D17DE600E0C7
:1059D00000BF7AE6000000000000000000000000A8
:1059E00030B585B005000C000C22002101A8FEF79F
:1059F00025FC6B461D715C71042C4ED005D8022C21
:105A000030D0032C15D105B030BD052C11D12C4A56
:105A10001378DB07F7D5042113788B431370294BD8
:105A20001C68E269EFF3108172B61368002B09D18C
:105A3000FBE7244B1C68E269EFF3108172B6136830
:105A4000002BFCD0BFF35F8F2162200001A900F082
:105A5000CBFEE269236ABFF35F8F0021116083F3FD
:105A60001088D0E7164B1A78D207CCD501211A78C6
:105A70008A431A701A780331A2431A7000225A70AE
:105A80001A788A431A700F4B1C68E269EFF3108191
:105A900072B61368002BD5D1FBE7094A1378DB07F0
:105AA000B1D5042113780B431370064B1C68E269CF
:105AB000EFF3108172B61368002BC3D1FBE7C04629
:105AC000540F0020900F002070B584B001AD060087
:105AD0000C000C2200212800FEF7B0FB01236B70A4
